:020000040000FA
:100000000A128A11E72F00308A000408840A820746
:1000100000343134323433344134343435343634CA
:10002000423437343834393443342A343034233486
:1000300044346D346F3474346F3472342034643427
:100040006534203470346134733473346F347334F2
:1000500000347334743465347034703465347234FD
:0E00600020346D346F3474346F3472340034D5
:1007AA0004340634023403340134093408340C3472
:1007BA00F030831603138600831603178901831604
:1007CA0003138113FF309500FF3083120313860051
:1007DA000800F5007508F40006300310F40DFF3E1A
:1007EA00031DF22B730874077F39803E0A128A119F
:1007FA00A8260A128A1108007E088A007F08820049
:10080A000A128A1101240A128A118000840A040831
:10081A007D0603190034FF0A0319FE0A052C232C4E
:10082A00C730F200182CF20B172C1B2C1C2C013091
:10083A00F0020030031CF103F102232C700871044A
:10084A00031D282C292C152C2A2C0800F300F20150
:10085A002E2C731C312C322C372C7008F1007108A5
:10086A00F207372C0310F00D0310F30C7308031D65
:10087A003F2C402C2E2C412C7208432C0800FA00E5
:10088A007608F8007808F9007608F8007808F30086
:10089A007A080A128A11EE230A128A11692C770839
:1008AA0084000A128A1103200A128A110A128A1172
:1008BA00AA240A128A110130F8007808F7070130D1
:1008CA00F8007808F907692C770884000A128A1157
:1008DA0003200A128A11003A031D742C752C542C19
:1008EA00762C0800831603130712831203130712C8
:1008FA0083160313871283120313871283160313B3
:10090A000713831203130713831603138713831220
:10091A00031387137108CA007008C9000030C800A1
:10092A000030C7000030C6000030C500CB01F030EF
:10093A00F200720886054B083D3E840083130008C6
:10094A000F39F200720886040800F20083120313BA
:10095A0008157208F00004300310F00CFF3E031D66
:10096A00B12C7008F10004300310F10DFF3E031D95
:10097A00B92C08080F397104880088110D30F0006D
:10098A00F00BC52C83120313881508157208F000A2
:10099A0004300310F00DFF3E031DCE2C08080F395A
:1009AA007004880088110D30F000F00BDA2C8312E5
:1009BA000313881508006430F0000030F1000A12B1
:1009CA008A1114240A128A11831603130811881132
:1009DA0008128812081388136430F0000030F100FE
:1009EA000A128A1114240A128A118312031388150F
:1009FA0028300A128A11A8260A128A110C300A1201
:100A0A008A11A8260A128A1101300A128A11A82606
:100A1A000A128A1102300A128A11A8260A128A11A7
:100A2A006430F0000030F1000A128A1114240A120C
:100A3A008A1108000030FC000030FB000030FA0088
:100A4A000030F900282D701C2B2D2C2D442D7408F4
:100A5A00F907750803110318013E0319352DFA0722
:100A6A00760803110318013E03193C2DFB0777088A
:100A7A0003110318013E0319432DFC07442D0130CD
:100A8A00F8000310F40DF50DF60DF70DF80B462DD1
:100A9A0001300310F30CF20CF10CF00CFF3E031DB5
:100AAA004E2D7308720471047004031D5D2D5E2DB2
:100ABA00282D5F2D7C08F3007B08F2007A08F100EC
:100ACA007908F000682D080083120313BC010A128A
:100ADA008A11E0240A128A110A128A11DD230A12E3
:100AEA008A11C830F0000030F1000A128A11772406
:100AFA000A128A11802D0A128A11CC250A128A1129
:100B0A0083120313BB003B08BC0031303C06031DB3
:100B1A008F2D902DB32DF6011130BB003B08F70045
:100B2A0000300A128A1144240A128A1100308312F0
:100B3A000313B0000030AF000030AE00C830AD0083
:100B4A00B101B10AB201B301C830B4000030B50036
:100B5A000A128A1133270A128A11B32D32308312EC
:100B6A0003133C06031DBA2DBB2D802DF60121303F
:100B7A00BB003B08F70000300A128A1144240A120B
:100B8A008A11802D802D802D0A128A110028F701E2
:100B9A00F80104307802031CD32DD42DD62D362E1D
:100BAA00362E0130F000780ADC2D0310F00DFF3EDE
:100BBA00031DDA2D7008FF3A831203138600F90128
:100BCA0004307902031CEA2DEB2DED2D2B2E2B2E52
:100BDA000609F000F101F109790AF2001030F30078
:100BEA000030F400FB2D0310F30DF40DF20BF82D79
:100BFA0070087305F50071087405F6007508760427
:100C0A000319082E092E202E7808F000023003104E
:100C1A00F00DFF3E031D0C2E01307007F10079081C
:100C2A00710784000A128A1103200A128A11F2003B
:100C3A007208F700202E0130F0007008F90704301E
:100C4A007902031C292E2A2EED2D2B2E0130F000BD
:100C5A007008F80704307802031C342E352ED62D7E
:100C6A00362E7708382E0800003083120313AB00A3
:100C7A000030AA000030A9000030A800230822048E
:100C8A002104200403194A2E4B2E9E2EAC01AC0AD5
:100C9A005C2E0130FD000310A00DA10DA20DA30DC5
:100CAA00FD0B502E0130FD007D08AC075C2EA31F02
:100CBA005F2E602E4E2E622E622E0130FD00031032
:100CCA00A80DA90DAA0DAB0DFD0B642E2308270252
:100CDA00031D792E22082602031D792E21082502DA
:100CEA00031D792E20082402031C7C2E7D2E8D2EB6
:100CFA002008A4022108031C210FA5022208031CB4
:100D0A00220FA6022308031C230FA70228148D2EE4
:100D1A0001300310A30CA20CA10CA00CFF3E031D72
:100D2A008E2E0130AC02031D9B2E9C2E622E9E2E0F
:100D3A009E2E2B08A3002A08A2002908A100280831
:100D4A00A000A72E0800F2008312031308117208EC
:100D5A00F00004300310F00CFF3E031DAF2E7008A4
:100D6A00F10004300310F10DFF3E031DB72E0808F1
:100D7A000F3971048800881172030319C52EC62E13
:100D8A00CD2E02307206031DCB2ECC2ED72ECD2EA1
:100D9A000330F1009730F000F00BD12EF10BD12E79
:100DAA00D62EDC2E0D30F000F00BD92EDC2E83125D
:100DBA0003138815F0307205F00020307006031D09
:100DCA00E72EE82E062F08117208F00004300310EF
:100DDA00F00CFF3E031DEC2E7008F10004300310E6
:100DEA00F10DFF3E031DF42E08080F397104880027
:100DFA0088110D30F000F00B002F831203138815B1
:100E0A00062F08117208F00004300310F00DFF3E9F
:100E1A00031D0A2F08080F3970048800881172030D
:100E2A000319182F192F202F02307206031D1E2FA7
:100E3A001F2F2A2F202F0330F1009730F000F00BDC
:100E4A00242FF10B242F292F2F2F0D30F000F00B18
:100E5A002C2F2F2F831203138815080002308312B8
:100E6A000313B6003608BA003108031D3D2F3E2F82
:100E7A00732F0030A3000030A2000130A1006830B7
:100E8A00A0004908F0004A08F100F201F301300815
:100E9A00F7002F08F6002E08F5002D08F4000A12B4
:100EAA008A111F250A128A11730883120313A700D5
:100EBA007208A6007108A5007008A4000A128A1117
:100ECA0039260A128A11831203132308C80022083A
:100EDA00C7002108C6002008C5007C2F3008C800BA
:100EEA002F08C7002E08C6002D08C5007C2F330323
:100EFA00031D802F812F8C2F0130B6000310C50DE2
:100F0A00C60DC70DC80DB60B832FBA01BA0A320334
:100F1A00031D902F912FDB2F3A08B6003608F000F8
:100F2A00FF300A128A112B240A128A118312031320
:100F3A00B7003708BA00DB2FDB2F3A084B0707390F
:100F4A00B6003608CB00F030B600360886054B08E6
:100F5A003D3E8400831300080F39B6003608860424
:100F6A000130B6000030B7000030B8000030B900D8
:100F7A003608C5023708031C370FC42FC52FC6020F
:100F8A003808031C380FCA2FCB2FC7023908031C95
:100F9A00390FD02FD12FC8023508F1003408F000DC
:100FAA000A128A1114240A128A11DB2F83120313DC
:100FBA004808470446044504031DE42FE52FA22FE1
:100FCA00E62F080083134530FD000330FE00D530BC
:100FDA00FF003D3084000A128A1105240A128A1180
:100FEA00C501C601C701C801C901CA01CB018301F4
:060FFA000A128A11692DA4
:04400E00D4E0FFFFFC
:00000001FF
